{
  "contractName": "Voting",
  "abi": [
    {
      "constant": false,
      "inputs": [],
      "name": "getCandidates",
      "outputs": [
        {
          "name": "",
          "type": "address[]"
        }
      ],
      "payable": false,
      "stateMutability": "nonpayable",
      "type": "function"
    },
    {
      "constant": true,
      "inputs": [],
      "name": "startDate",
      "outputs": [
        {
          "name": "",
          "type": "uint256"
        }
      ],
      "payable": false,
      "stateMutability": "view",
      "type": "function"
    },
    {
      "constant": true,
      "inputs": [
        {
          "name": "",
          "type": "address"
        }
      ],
      "name": "votesSent",
      "outputs": [
        {
          "name": "",
          "type": "uint256"
        }
      ],
      "payable": false,
      "stateMutability": "view",
      "type": "function"
    },
    {
      "constant": false,
      "inputs": [],
      "name": "declareWinner",
      "outputs": [],
      "payable": false,
      "stateMutability": "nonpayable",
      "type": "function"
    },
    {
      "constant": false,
      "inputs": [
        {
          "name": "candidateAddress",
          "type": "address"
        }
      ],
      "name": "voteForCandidate",
      "outputs": [],
      "payable": false,
      "stateMutability": "nonpayable",
      "type": "function"
    },
    {
      "constant": true,
      "inputs": [
        {
          "name": "",
          "type": "address"
        }
      ],
      "name": "votesReceived",
      "outputs": [
        {
          "name": "",
          "type": "uint256"
        }
      ],
      "payable": false,
      "stateMutability": "view",
      "type": "function"
    },
    {
      "constant": false,
      "inputs": [
        {
          "name": "candidateAddress",
          "type": "address"
        }
      ],
      "name": "totalVotesFor",
      "outputs": [
        {
          "name": "",
          "type": "uint256"
        }
      ],
      "payable": false,
      "stateMutability": "nonpayable",
      "type": "function"
    },
    {
      "constant": false,
      "inputs": [
        {
          "name": "voter",
          "type": "address"
        }
      ],
      "name": "validVoter",
      "outputs": [
        {
          "name": "",
          "type": "bool"
        }
      ],
      "payable": false,
      "stateMutability": "nonpayable",
      "type": "function"
    },
    {
      "constant": true,
      "inputs": [
        {
          "name": "",
          "type": "uint256"
        }
      ],
      "name": "voterList",
      "outputs": [
        {
          "name": "",
          "type": "address"
        }
      ],
      "payable": false,
      "stateMutability": "view",
      "type": "function"
    },
    {
      "constant": false,
      "inputs": [
        {
          "name": "name",
          "type": "bytes32"
        },
        {
          "name": "email",
          "type": "bytes32"
        }
      ],
      "name": "registerCandidate",
      "outputs": [],
      "payable": false,
      "stateMutability": "nonpayable",
      "type": "function"
    },
    {
      "constant": false,
      "inputs": [],
      "name": "getNumCandidates",
      "outputs": [
        {
          "name": "",
          "type": "uint256"
        }
      ],
      "payable": false,
      "stateMutability": "nonpayable",
      "type": "function"
    },
    {
      "constant": true,
      "inputs": [],
      "name": "WinnerAddress",
      "outputs": [
        {
          "name": "",
          "type": "bytes32"
        }
      ],
      "payable": false,
      "stateMutability": "view",
      "type": "function"
    },
    {
      "constant": false,
      "inputs": [
        {
          "name": "candidateAddress",
          "type": "address"
        }
      ],
      "name": "validCandidate",
      "outputs": [
        {
          "name": "",
          "type": "bool"
        }
      ],
      "payable": false,
      "stateMutability": "nonpayable",
      "type": "function"
    },
    {
      "constant": false,
      "inputs": [],
      "name": "isWinnerNotified",
      "outputs": [
        {
          "name": "",
          "type": "bool"
        }
      ],
      "payable": false,
      "stateMutability": "nonpayable",
      "type": "function"
    },
    {
      "constant": false,
      "inputs": [],
      "name": "getBlockTimestamp",
      "outputs": [
        {
          "name": "",
          "type": "uint256"
        }
      ],
      "payable": false,
      "stateMutability": "nonpayable",
      "type": "function"
    },
    {
      "constant": true,
      "inputs": [],
      "name": "electionName",
      "outputs": [
        {
          "name": "",
          "type": "bytes32"
        }
      ],
      "payable": false,
      "stateMutability": "view",
      "type": "function"
    },
    {
      "constant": false,
      "inputs": [],
      "name": "getWinner",
      "outputs": [
        {
          "name": "",
          "type": "address"
        },
        {
          "name": "",
          "type": "bytes32"
        },
        {
          "name": "",
          "type": "bytes32"
        }
      ],
      "payable": false,
      "stateMutability": "nonpayable",
      "type": "function"
    },
    {
      "constant": true,
      "inputs": [
        {
          "name": "",
          "type": "uint256"
        }
      ],
      "name": "candidateList",
      "outputs": [
        {
          "name": "candidateAddress",
          "type": "address"
        },
        {
          "name": "candidateName",
          "type": "bytes32"
        },
        {
          "name": "candidateEmail",
          "type": "bytes32"
        }
      ],
      "payable": false,
      "stateMutability": "view",
      "type": "function"
    },
    {
      "constant": false,
      "inputs": [],
      "name": "winnerNotified",
      "outputs": [],
      "payable": false,
      "stateMutability": "nonpayable",
      "type": "function"
    },
    {
      "constant": true,
      "inputs": [],
      "name": "Winner",
      "outputs": [
        {
          "name": "",
          "type": "address"
        }
      ],
      "payable": false,
      "stateMutability": "view",
      "type": "function"
    },
    {
      "constant": true,
      "inputs": [],
      "name": "endDate",
      "outputs": [
        {
          "name": "",
          "type": "uint256"
        }
      ],
      "payable": false,
      "stateMutability": "view",
      "type": "function"
    },
    {
      "constant": true,
      "inputs": [],
      "name": "WinnerName",
      "outputs": [
        {
          "name": "",
          "type": "bytes32"
        }
      ],
      "payable": false,
      "stateMutability": "view",
      "type": "function"
    },
    {
      "constant": false,
      "inputs": [],
      "name": "registerVoter",
      "outputs": [],
      "payable": false,
      "stateMutability": "nonpayable",
      "type": "function"
    },
    {
      "inputs": [
        {
          "name": "title",
          "type": "bytes32"
        },
        {
          "name": "start",
          "type": "uint256"
        },
        {
          "name": "end",
          "type": "uint256"
        }
      ],
      "payable": false,
      "stateMutability": "nonpayable",
      "type": "constructor"
    },
    {
      "anonymous": false,
      "inputs": [
        {
          "indexed": false,
          "name": "candidateAddress",
          "type": "address"
        },
        {
          "indexed": false,
          "name": "name",
          "type": "bytes32"
        },
        {
          "indexed": false,
          "name": "email",
          "type": "bytes32"
        }
      ],
      "name": "Winner",
      "type": "event"
    },
    {
      "anonymous": false,
      "inputs": [
        {
          "indexed": false,
          "name": "voterAddress",
          "type": "address"
        }
      ],
      "name": "Voter",
      "type": "event"
    }
  ],
  "bytecode": "0x60606040526000600960006101000a81548160ff0219169083151502179055506000600a55341561002f57600080fd5b60405160608061125583398101604052808051906020019091908051906020019091908051906020019091905050826001816000191690555081600281905550806003819055505050506111cd806100886000396000f300606060405260043610610133576000357c0100000000000000000000000000000000000000000000000000000000900463ffffffff16806306a49fce146101385780630b97bc86146101a25780630eab2d34146101cb57806314034bd214610218578063163046eb1461022d57806330c880c3146102665780634041ef54146102b3578063419255221461030057806350e2e8af1461035157806356c68f8b146103b45780635c06b06e146103e85780635f90aaab1461041157806371851be81461044257806374ce9cce14610493578063796b89b9146104c057806385e8e7a7146104e95780638e7ea5b21461051a578063b13c744b1461058d578063b2381a9e1461060e578063b2b98ed214610623578063c24a0f8b14610678578063da81be30146106a1578063ecb617d9146106d2575b600080fd5b341561014357600080fd5b61014b6106e7565b6040518080602001828103825283818151815260200191508051906020019060200280838360005b8381101561018e578082015181840152602081019050610173565b505050509050019250505060405180910390f35b34156101ad57600080fd5b6101b561083b565b6040518082815260200191505060405180910390f35b34156101d657600080fd5b610202600480803573ffffffffffffffffffffffffffffffffffffffff16906020019091905050610841565b6040518082815260200191505060405180910390f35b341561022357600080fd5b61022b610859565b005b341561023857600080fd5b610264600480803573ffffffffffffffffffffffffffffffffffffffff16906020019091905050610af8565b005b341561027157600080fd5b61029d600480803573ffffffffffffffffffffffffffffffffffffffff16906020019091905050610c10565b6040518082815260200191505060405180910390f35b34156102be57600080fd5b6102ea600480803573ffffffffffffffffffffffffffffffffffffffff16906020019091905050610c28565b6040518082815260200191505060405180910390f35b341561030b57600080fd5b610337600480803573ffffffffffffffffffffffffffffffffffffffff16906020019091905050610c89565b604051808215151515815260200191505060405180910390f35b341561035c57600080fd5b6103726004808035906020019091905050610d2d565b604051808273ffffffffffffffffffffffffffffffffffffffff1673ffffffffffffffffffffffffffffffffffffffff16815260200191505060405180910390f35b34156103bf57600080fd5b6103e660048080356000191690602001909190803560001916906020019091905050610d6c565b005b34156103f357600080fd5b6103fb610e63565b6040518082815260200191505060405180910390f35b341561041c57600080fd5b610424610e6d565b60405180826000191660001916815260200191505060405180910390f35b341561044d57600080fd5b610479600480803573ffffffffffffffffffffffffffffffffffffffff16906020019091905050610e73565b604051808215151515815260200191505060405180910390f35b341561049e57600080fd5b6104a6610f18565b604051808215151515815260200191505060405180910390f35b34156104cb57600080fd5b6104d3610f3e565b6040518082815260200191505060405180910390f35b34156104f457600080fd5b6104fc610f46565b60405180826000191660001916815260200191505060405180910390f35b341561052557600080fd5b61052d610f4c565b604051808473ffffffffffffffffffffffffffffffffffffffff1673ffffffffffffffffffffffffffffffffffffffff16815260200183600019166000191681526020018260001916600019168152602001935050505060405180910390f35b341561059857600080fd5b6105ae6004808035906020019091905050610f94565b604051808473ffffffffffffffffffffffffffffffffffffffff1673ffffffffffffffffffffffffffffffffffffffff16815260200183600019166000191681526020018260001916600019168152602001935050505060405180910390f35b341561061957600080fd5b610621610fde565b005b341561062e57600080fd5b610636611027565b604051808273ffffffffffffffffffffffffffffffffffffffff1673ffffffffffffffffffffffffffffffffffffffff16815260200191505060405180910390f35b341561068357600080fd5b61068b61104d565b6040518082815260200191505060405180910390f35b34156106ac57600080fd5b6106b4611053565b60405180826000191660001916815260200191505060405180910390f35b34156106dd57600080fd5b6106e5611059565b005b6106ef61113c565b60008060008090505b600a548110156107ad5760076000600183018152602001908152602001600020915082805480600101828161072d9190611150565b916000526020600020900160008460000160009054906101000a900473ffffffffffffffffffffffffffffffffffffffff16909190916101000a81548173ffffffffffffffffffffffffffffffffffffffff021916908373ffffffffffffffffffffffffffffffffffffffff1602179055505080806001019150506106f8565b8280548060200260200160405190810160405280929190818152602001828054801561082e57602002820191906000526020600020905b8160009054906101000a900473ffffffffffffffffffffffffffffffffffffffff1673ffffffffffffffffffffffffffffffffffffffff16815260200190600101908083116107e4575b5050505050935050505090565b60025481565b600b6020528060005260406000206000915090505481565b60008060008060035442101561086e57600080fd5b6000600460009054906101000a900473ffffffffffffffffffffffffffffffffffffffff1673ffffffffffffffffffffffffffffffffffffffff161415156108b557600080fd5b60009350600090505b600a548110156109c057600760006001830181526020019081526020016000209150836000808460000160009054906101000a900473ffffffffffffffffffffffffffffffffffffffff1673ffffffffffffffffffffffffffffffffffffffff1673ffffffffffffffffffffffffffffffffffffffff1681526020019081526020016000205411156109b3578192506000808360000160009054906101000a900473ffffffffffffffffffffffffffffffffffffffff1673ffffffffffffffffffffffffffffffffffffffff1673ffffffffffffffffffffffffffffffffffffffff1681526020019081526020016000205493505b80806001019150506108be565b7fd2ebe5c931825e5099b4d74c4c71bed8d2fc7c4b4cb06edaafeb3cd88502ed008260000160009054906101000a900473ffffffffffffffffffffffffffffffffffffffff1683600101548460020154604051808473ffffffffffffffffffffffffffffffffffffffff1673ffffffffffffffffffffffffffffffffffffffff16815260200183600019166000191681526020018260001916600019168152602001935050505060405180910390a18260000160009054906101000a900473ffffffffffffffffffffffffffffffffffffffff16600460006101000a81548173ffffffffffffffffffffffffffffffffffffffff021916908373ffffffffffffffffffffffffffffffffffffffff16021790555082600201546005816000191690555082600101546006816000191690555050505050565b600254421080610b09575060035442115b15610b1357600080fd5b6000600b60003373ffffffffffffffffffffffffffffffffffffffff1673ffffffffffffffffffffffffffffffffffffffff16815260200190815260200160002054141515610b6157600080fd5b60001515610b6e82610e73565b15151415610b7b57600080fd5b6001600b60003373ffffffffffffffffffffffffffffffffffffffff1673ffffffffffffffffffffffffffffffffffffffff1681526020019081526020016000208190555060016000808373ffffffffffffffffffffffffffffffffffffffff1673ffffffffffffffffffffffffffffffffffffffff1681526020019081526020016000206000828254019250508190555050565b60006020528060005260406000206000915090505481565b6000801515610c3683610e73565b15151415610c4357600080fd5b6000808373ffffffffffffffffffffffffffffffffffffffff1673ffffffffffffffffffffffffffffffffffffffff168152602001908152602001600020549050919050565b600080600090505b600880549050811015610d22578273ffffffffffffffffffffffffffffffffffffffff16600882815481101515610cc457fe5b906000526020600020900160009054906101000a900473ffffffffffffffffffffffffffffffffffffffff1673ffffffffffffffffffffffffffffffffffffffff161415610d155760019150610d27565b8080600101915050610c91565b600091505b50919050565b600881815481101515610d3c57fe5b90600052602060002090016000915054906101000a900473ffffffffffffffffffffffffffffffffffffffff1681565b600254421115610d7b57600080fd5b60011515610d8833610e73565b15151415610d9557600080fd5b6001600a600082825401925050819055506060604051908101604052803373ffffffffffffffffffffffffffffffffffffffff16815260200183600019168152602001826000191681525060076000600a54815260200190815260200160002060008201518160000160006101000a81548173ffffffffffffffffffffffffffffffffffffffff021916908373ffffffffffffffffffffffffffffffffffffffff16021790555060208201518160010190600019169055604082015181600201906000191690559050505050565b6000600a54905090565b60055481565b60008060008090505b600a54811015610f0c576007600060018301815260200190815260200160002091508373ffffffffffffffffffffffffffffffffffffffff168260000160009054906101000a900473ffffffffffffffffffffffffffffffffffffffff1673ffffffffffffffffffffffffffffffffffffffff161415610eff5760019250610f11565b8080600101915050610e7c565b600092505b5050919050565b6000600354421015610f2957600080fd5b600960009054906101000a900460ff16905090565b600042905090565b60015481565b6000806000600354421015610f6057600080fd5b600460009054906101000a900473ffffffffffffffffffffffffffffffffffffffff16600554600654925092509250909192565b60076020528060005260406000206000915090508060000160009054906101000a900473ffffffffffffffffffffffffffffffffffffffff16908060010154908060020154905083565b600354421015610fed57600080fd5b60001515600960009054906101000a900460ff1615151415611025576001600960006101000a81548160ff0219169083151502179055505b565b600460009054906101000a900473ffffffffffffffffffffffffffffffffffffffff1681565b60035481565b60065481565b6000151561106633610c89565b151514151561107457600080fd5b600880548060010182816110889190611150565b9160005260206000209001600033909190916101000a81548173ffffffffffffffffffffffffffffffffffffffff021916908373ffffffffffffffffffffffffffffffffffffffff160217905550507f0c1b36e97846a7da5a05d35cf12e6549b45ad533b06775af71fcb75690fdf48f33604051808273ffffffffffffffffffffffffffffffffffffffff1673ffffffffffffffffffffffffffffffffffffffff16815260200191505060405180910390a1565b602060405190810160405280600081525090565b81548183558181151161117757818360005260206000209182019101611176919061117c565b5b505050565b61119e91905b8082111561119a576000816000905550600101611182565b5090565b905600a165627a7a72305820c32588b22a9c823571df8cd4acea88e13bb3d703b7397ec01f3bd584591094ed0029",
  "source": "pragma solidity ^0.4.2;\r\n//import \"./usingOraclize.sol\";\r\n\r\ncontract Voting  /*is usingOraclize*/ {\r\n    struct candidate{\r\n        address candidateAddress;\r\n        bytes32 candidateName;\r\n        bytes32 candidateEmail;\r\n    }\r\n    mapping (address=>uint) public votesReceived;\r\n    bytes32 public electionName;\r\n    uint public startDate;\r\n    uint public endDate;\r\n    address public Winner; \r\n    bytes32 public WinnerAddress;\r\n    bytes32 public WinnerName;\r\n    mapping (uint => candidate) public candidateList;\r\n    address[] public voterList;\r\n    bool wasWinnerNotified = false;\r\n    uint numCandidates = 0;\r\n    mapping (address=>uint)  public votesSent;\r\n\r\n\r\n    function Voting(bytes32 title, uint start, uint end){\r\n        electionName = title;\r\n        startDate = start;\r\n        endDate = end;\r\n        //OAR = OraclizeAddrResolverI(address(this));\r\n        //oraclize_query(end, \"URL\", \"\");\r\n    }\r\n\r\n    event Winner(address candidateAddress, bytes32 name, bytes32 email);\r\n    event Voter(address voterAddress);\r\n    function winnerNotified(){\r\n        if(block.timestamp < endDate) throw;\r\n        if(wasWinnerNotified == false)\r\n         wasWinnerNotified = true;\r\n    }\r\n    function isWinnerNotified() returns (bool){\r\n        if(block.timestamp < endDate) throw;\r\n        return wasWinnerNotified;\r\n    }\r\n    function getWinner() returns (address, bytes32, bytes32){\r\n        if(block.timestamp < endDate) throw;\r\n        return (Winner, WinnerAddress, WinnerName);\r\n    }\r\n    function declareWinner() {\r\n        //can't have a winner if it hasn't ended\r\n        if(block.timestamp < endDate) throw;\r\n        //someone won\r\n        if(Winner != 0x0) throw;\r\n\r\n        uint max = 0;\r\n        candidate storage winner;\r\n        candidate storage c;\r\n        for(uint i = 0; i < numCandidates; i++){\r\n            c = candidateList[i+1];\r\n            if(votesReceived[c.candidateAddress] > max)\r\n            {\r\n                winner = c;\r\n                max = votesReceived[c.candidateAddress];\r\n            }\r\n        }\r\n        Winner(c.candidateAddress, c.candidateName, c.candidateEmail);\r\n        Winner = winner.candidateAddress;\r\n        WinnerAddress = winner.candidateEmail;\r\n        WinnerName = winner.candidateName;\r\n    }\r\n\r\n   // function __callback(bytes32 myid, string result) {\r\n    //    if (msg.sender != oraclize_cbAddress()) throw;\r\n   //         declareWinner();\r\n  //  }\r\n    function getBlockTimestamp() returns (uint){\r\n        return block.timestamp;\r\n    }\r\n    function getNumCandidates() returns (uint){\r\n        return numCandidates;\r\n    }\r\n    function getCandidates() returns (address[]){\r\n        address[] list;\r\n        candidate storage c;\r\n        for(uint i = 0; i < numCandidates; i++){\r\n            c = candidateList[i+1];\r\n            list.push(c.candidateAddress);\r\n        }\r\n        return list;\r\n    }\r\n    function totalVotesFor(address candidateAddress) returns (uint) {\r\n        if (validCandidate(candidateAddress) == false) throw;\r\n        return votesReceived[candidateAddress];\r\n    }\r\n    function registerCandidate(bytes32 name, bytes32 email)\r\n    {\r\n        if(block.timestamp > startDate) throw;\r\n        if(validCandidate(msg.sender) == true) throw;\r\n        numCandidates += 1;\r\n        candidateList[numCandidates] = candidate(msg.sender, name, email);\r\n    }\r\n    function registerVoter(){\r\n        if(validVoter(msg.sender) != false) throw;\r\n        voterList.push(msg.sender);\r\n        Voter(msg.sender);\r\n    }\r\n    function voteForCandidate(address candidateAddress) \r\n    {\r\n        if(block.timestamp < startDate || block.timestamp > endDate) throw;\r\n        if(votesSent[msg.sender] != 0) throw;\r\n        if (validCandidate(candidateAddress) == false) throw;\r\n        votesSent[msg.sender] = 1;\r\n        votesReceived[candidateAddress] += 1;\r\n    }\r\n \r\n    function validCandidate(address candidateAddress) returns (bool) \r\n    {\r\n        candidate storage c;\r\n        for(uint i = 0; i < numCandidates; i++){\r\n            c = candidateList[i+1];\r\n            if(c.candidateAddress == candidateAddress)\r\n                return true;\r\n        }\r\n        return false;\r\n    }\r\n    function validVoter(address voter) returns (bool) \r\n    {\r\n        for(uint i = 0; i < voterList.length; i++) {\r\n        if (voterList[i] == voter) {\r\n            return true;\r\n        }\r\n        }\r\n        return false;\r\n    }\r\n}",
  "sourcePath": "C:\\Users\\Jarret\\Documents\\BlockchainTestApp\\contracts\\Voting.sol",
  "compiler": {
    "name": "solc",
    "version": "0.4.18+commit.9cf6e910.Emscripten.clang"
  },
  "schemaVersion": "1.0.1",
  "updatedAt": "2017-12-02T19:46:44.151Z"
}